{
  "address": "0xEf97Bf0adB797C461955B03339B2f61bA0C5e159",
  "abi": [
    {
      "inputs": [
        {
          "internalType": "address",
          "name": "pythContract",
          "type": "address"
        }
      ],
      "stateMutability": "nonpayable",
      "type": "constructor"
    },
    {
      "anonymous": false,
      "inputs": [
        {
          "indexed": false,
          "internalType": "address",
          "name": "token",
          "type": "address"
        },
        {
          "indexed": false,
          "internalType": "bytes32",
          "name": "priceId",
          "type": "bytes32"
        },
        {
          "indexed": false,
          "internalType": "address",
          "name": "priceFeed",
          "type": "address"
        }
      ],
      "name": "NewPriceFeed",
      "type": "event"
    },
    {
      "anonymous": false,
      "inputs": [
        {
          "indexed": false,
          "internalType": "address",
          "name": "token",
          "type": "address"
        },
        {
          "indexed": false,
          "internalType": "int256",
          "name": "price",
          "type": "int256"
        },
        {
          "indexed": false,
          "internalType": "address",
          "name": "priceFeed",
          "type": "address"
        }
      ],
      "name": "PriceUpdate",
      "type": "event"
    },
    {
      "anonymous": false,
      "inputs": [
        {
          "indexed": true,
          "internalType": "bytes32",
          "name": "role",
          "type": "bytes32"
        },
        {
          "indexed": true,
          "internalType": "bytes32",
          "name": "previousAdminRole",
          "type": "bytes32"
        },
        {
          "indexed": true,
          "internalType": "bytes32",
          "name": "newAdminRole",
          "type": "bytes32"
        }
      ],
      "name": "RoleAdminChanged",
      "type": "event"
    },
    {
      "anonymous": false,
      "inputs": [
        {
          "indexed": true,
          "internalType": "bytes32",
          "name": "role",
          "type": "bytes32"
        },
        {
          "indexed": true,
          "internalType": "address",
          "name": "account",
          "type": "address"
        },
        {
          "indexed": true,
          "internalType": "address",
          "name": "sender",
          "type": "address"
        }
      ],
      "name": "RoleGranted",
      "type": "event"
    },
    {
      "anonymous": false,
      "inputs": [
        {
          "indexed": true,
          "internalType": "bytes32",
          "name": "role",
          "type": "bytes32"
        },
        {
          "indexed": true,
          "internalType": "address",
          "name": "account",
          "type": "address"
        },
        {
          "indexed": true,
          "internalType": "address",
          "name": "sender",
          "type": "address"
        }
      ],
      "name": "RoleRevoked",
      "type": "event"
    },
    {
      "inputs": [],
      "name": "DEFAULT_ADMIN_ROLE",
      "outputs": [
        {
          "internalType": "bytes32",
          "name": "",
          "type": "bytes32"
        }
      ],
      "stateMutability": "view",
      "type": "function"
    },
    {
      "inputs": [],
      "name": "UPDATER_ROLE",
      "outputs": [
        {
          "internalType": "bytes32",
          "name": "",
          "type": "bytes32"
        }
      ],
      "stateMutability": "view",
      "type": "function"
    },
    {
      "inputs": [
        {
          "internalType": "address",
          "name": "token",
          "type": "address"
        },
        {
          "internalType": "bytes32",
          "name": "priceId",
          "type": "bytes32"
        }
      ],
      "name": "deployPriceFeed",
      "outputs": [],
      "stateMutability": "nonpayable",
      "type": "function"
    },
    {
      "inputs": [
        {
          "internalType": "bytes32",
          "name": "role",
          "type": "bytes32"
        }
      ],
      "name": "getRoleAdmin",
      "outputs": [
        {
          "internalType": "bytes32",
          "name": "",
          "type": "bytes32"
        }
      ],
      "stateMutability": "view",
      "type": "function"
    },
    {
      "inputs": [
        {
          "internalType": "bytes32",
          "name": "role",
          "type": "bytes32"
        },
        {
          "internalType": "address",
          "name": "account",
          "type": "address"
        }
      ],
      "name": "grantRole",
      "outputs": [],
      "stateMutability": "nonpayable",
      "type": "function"
    },
    {
      "inputs": [
        {
          "internalType": "bytes32",
          "name": "role",
          "type": "bytes32"
        },
        {
          "internalType": "address",
          "name": "account",
          "type": "address"
        }
      ],
      "name": "hasRole",
      "outputs": [
        {
          "internalType": "bool",
          "name": "",
          "type": "bool"
        }
      ],
      "stateMutability": "view",
      "type": "function"
    },
    {
      "inputs": [
        {
          "internalType": "bytes32",
          "name": "",
          "type": "bytes32"
        }
      ],
      "name": "priceFeeds",
      "outputs": [
        {
          "internalType": "contract PriceFeed",
          "name": "",
          "type": "address"
        }
      ],
      "stateMutability": "view",
      "type": "function"
    },
    {
      "inputs": [
        {
          "internalType": "bytes32",
          "name": "",
          "type": "bytes32"
        }
      ],
      "name": "priceTokens",
      "outputs": [
        {
          "internalType": "address",
          "name": "",
          "type": "address"
        }
      ],
      "stateMutability": "view",
      "type": "function"
    },
    {
      "inputs": [],
      "name": "pyth",
      "outputs": [
        {
          "internalType": "contract IPyth",
          "name": "",
          "type": "address"
        }
      ],
      "stateMutability": "view",
      "type": "function"
    },
    {
      "inputs": [
        {
          "internalType": "contract IERC20",
          "name": "token",
          "type": "address"
        },
        {
          "internalType": "uint256",
          "name": "amount",
          "type": "uint256"
        }
      ],
      "name": "recoverWrongTokens",
      "outputs": [],
      "stateMutability": "nonpayable",
      "type": "function"
    },
    {
      "inputs": [
        {
          "internalType": "bytes32",
          "name": "role",
          "type": "bytes32"
        },
        {
          "internalType": "address",
          "name": "account",
          "type": "address"
        }
      ],
      "name": "renounceRole",
      "outputs": [],
      "stateMutability": "nonpayable",
      "type": "function"
    },
    {
      "inputs": [
        {
          "internalType": "bytes32",
          "name": "role",
          "type": "bytes32"
        },
        {
          "internalType": "address",
          "name": "account",
          "type": "address"
        }
      ],
      "name": "revokeRole",
      "outputs": [],
      "stateMutability": "nonpayable",
      "type": "function"
    },
    {
      "inputs": [
        {
          "internalType": "bytes4",
          "name": "interfaceId",
          "type": "bytes4"
        }
      ],
      "name": "supportsInterface",
      "outputs": [
        {
          "internalType": "bool",
          "name": "",
          "type": "bool"
        }
      ],
      "stateMutability": "view",
      "type": "function"
    },
    {
      "inputs": [
        {
          "internalType": "bytes[]",
          "name": "priceUpdateData",
          "type": "bytes[]"
        },
        {
          "internalType": "bytes32[]",
          "name": "priceIds",
          "type": "bytes32[]"
        }
      ],
      "name": "update",
      "outputs": [],
      "stateMutability": "payable",
      "type": "function"
    },
    {
      "stateMutability": "payable",
      "type": "receive"
    }
  ],
  "transactionHash": "0x55fee3ca8f772e8d93f3edeb57088b77e11d7bbdc3c9a8b7d107c70ab3ab35b7",
  "args": [
    "0xA2aa501b19aff244D90cc15a4Cf739D2725B5729"
  ],
  "numDeployments": 1,
  "solcInputHash": "df4b45533dcf3fb13e1391fddd1a72bd",
  "bytecode": "0x60806040523480156200001157600080fd5b50604051620018b8380380620018b883398101604081905262000034916200013f565b600180546001600160a01b0319166001600160a01b0383161790556200005c6000336200008f565b620000887fe7d07e22cc47e0674aa5610dfc0c7c09a0a3b7491679c731a125fba46498854e336200008f565b5062000171565b6200009b82826200009f565b5050565b6000828152602081815260408083206001600160a01b038516845290915290205460ff166200009b576000828152602081815260408083206001600160a01b03851684529091529020805460ff19166001179055620000fb3390565b6001600160a01b0316816001600160a01b0316837f2f8788117e7eff1d82e926ec794901d17c78024a50270940304540a733656f0d60405160405180910390a45050565b6000602082840312156200015257600080fd5b81516001600160a01b03811681146200016a57600080fd5b9392505050565b61173780620001816000396000f3fe6080604052600436106100e15760003560e01c806391d148541161007f578063c6c3f71e11610059578063c6c3f71e1461025e578063d547741f146102ac578063ea4cf195146102cc578063f98d06f01461030257600080fd5b806391d1485414610209578063a217fddf14610229578063b5205b501461023e57600080fd5b806336568abe116100bb57806336568abe146101825780633f138d4b146101a257806347e63380146101c257806365e5c288146101f657600080fd5b806301ffc9a7146100ed578063248a9ca3146101225780632f2ff15d1461016057600080fd5b366100e857005b600080fd5b3480156100f957600080fd5b5061010d610108366004610dc4565b610322565b60405190151581526020015b60405180910390f35b34801561012e57600080fd5b5061015261013d366004610dee565b60009081526020819052604090206001015490565b604051908152602001610119565b34801561016c57600080fd5b5061018061017b366004610e1c565b610359565b005b34801561018e57600080fd5b5061018061019d366004610e1c565b610383565b3480156101ae57600080fd5b506101806101bd366004610e4c565b610406565b3480156101ce57600080fd5b506101527fe7d07e22cc47e0674aa5610dfc0c7c09a0a3b7491679c731a125fba46498854e81565b610180610204366004610ec4565b610425565b34801561021557600080fd5b5061010d610224366004610e1c565b6106c8565b34801561023557600080fd5b50610152600081565b34801561024a57600080fd5b50610180610259366004610e4c565b6106f1565b34801561026a57600080fd5b50610294610279366004610dee565b6002602052600090815260409020546001600160a01b031681565b6040516001600160a01b039091168152602001610119565b3480156102b857600080fd5b506101806102c7366004610e1c565b6107da565b3480156102d857600080fd5b506102946102e7366004610dee565b6003602052600090815260409020546001600160a01b031681565b34801561030e57600080fd5b50600154610294906001600160a01b031681565b60006001600160e01b03198216637965db0b60e01b148061035357506301ffc9a760e01b6001600160e01b03198316145b92915050565b600082815260208190526040902060010154610374816107ff565b61037e838361080c565b505050565b6001600160a01b03811633146103f85760405162461bcd60e51b815260206004820152602f60248201527f416363657373436f6e74726f6c3a2063616e206f6e6c792072656e6f756e636560448201526e103937b632b9903337b91039b2b63360891b60648201526084015b60405180910390fd5b6104028282610890565b5050565b6000610411816107ff565b61037e6001600160a01b03841633846108f5565b7fe7d07e22cc47e0674aa5610dfc0c7c09a0a3b7491679c731a125fba46498854e61044f816107ff565b60015460405163d47eed4560e01b81526000916001600160a01b03169063d47eed45906104829089908990600401610f59565b602060405180830381865afa15801561049f573d6000803e3d6000fd5b505050506040513d601f19601f820116820180604052508101906104c39190610ff5565b600154604051631df3cbc560e31b81529192506001600160a01b03169063ef9e5e289083906104f8908a908a90600401610f59565b6000604051808303818588803b15801561051157600080fd5b505af1158015610525573d6000803e3d6000fd5b505050505060005b838110156106bf5760008585838181106105495761054961100e565b6001546040516331d98b3f60e01b815260209290920293909301356004820181905293506000926001600160a01b031691506331d98b3f90602401608060405180830381865afa1580156105a1573d6000803e3d6000fd5b505050506040513d601f19601f820116820180604052508101906105c59190611069565b600083815260026020526040908190205482519151624ea97b60e41b81529293506001600160a01b0316916304ea97b09161060b9160040160079190910b815260200190565b600060405180830381600087803b15801561062557600080fd5b505af1158015610639573d6000803e3d6000fd5b505050600083815260036020908152604080832054855160028452938290205482516001600160a01b03928316815260079590950b93850193909352909116908201527f90277e0a27146696910b30954693420979b16d05c5b0318245e248e3f9c404de915060600160405180910390a1505080806106b79061110f565b91505061052d565b50505050505050565b6000918252602082815260408084206001600160a01b0393909316845291905290205460ff1690565b60006106fc816107ff565b6000828152600360205260409020546001600160a01b031661037e576000828152600360205260409081902080546001600160a01b0319166001600160a01b0386161790555161074b90610db7565b604051809103906000f080158015610767573d6000803e3d6000fd5b5060008381526002602090815260409182902080546001600160a01b0319166001600160a01b0394851690811790915582519387168452908301859052908201527f7fd495bf0819ac229e8e00d665e44daf77b3e916c0790d4873909bcd1cb40f629060600160405180910390a1505050565b6000828152602081905260409020600101546107f5816107ff565b61037e8383610890565b6108098133610947565b50565b61081682826106c8565b610402576000828152602081815260408083206001600160a01b03851684529091529020805460ff1916600117905561084c3390565b6001600160a01b0316816001600160a01b0316837f2f8788117e7eff1d82e926ec794901d17c78024a50270940304540a733656f0d60405160405180910390a45050565b61089a82826106c8565b15610402576000828152602081815260408083206001600160a01b0385168085529252808320805460ff1916905551339285917ff6391f5c32d9c69d2a47ea670b442974b53935d1edc7fd64eb21e047a839171b9190a45050565b604080516001600160a01b038416602482015260448082018490528251808303909101815260649091019091526020810180516001600160e01b031663a9059cbb60e01b17905261037e9084906109a0565b61095182826106c8565b6104025761095e81610a72565b610969836020610a84565b60405160200161097a92919061114c565b60408051601f198184030181529082905262461bcd60e51b82526103ef916004016111c1565b60006109f5826040518060400160405280602081526020017f5361666545524332303a206c6f772d6c6576656c2063616c6c206661696c6564815250856001600160a01b0316610c279092919063ffffffff16565b80519091501561037e5780806020019051810190610a1391906111f4565b61037e5760405162461bcd60e51b815260206004820152602a60248201527f5361666545524332303a204552433230206f7065726174696f6e20646964206e6044820152691bdd081cdd58d8d9595960b21b60648201526084016103ef565b60606103536001600160a01b03831660145b60606000610a93836002611216565b610a9e90600261122d565b67ffffffffffffffff811115610ab657610ab6611024565b6040519080825280601f01601f191660200182016040528015610ae0576020820181803683370190505b509050600360fc1b81600081518110610afb57610afb61100e565b60200101906001600160f81b031916908160001a905350600f60fb1b81600181518110610b2a57610b2a61100e565b60200101906001600160f81b031916908160001a9053506000610b4e846002611216565b610b5990600161122d565b90505b6001811115610bd1576f181899199a1a9b1b9c1cb0b131b232b360811b85600f1660108110610b8d57610b8d61100e565b1a60f81b828281518110610ba357610ba361100e565b60200101906001600160f81b031916908160001a90535060049490941c93610bca81611240565b9050610b5c565b508315610c205760405162461bcd60e51b815260206004820181905260248201527f537472696e67733a20686578206c656e67746820696e73756666696369656e7460448201526064016103ef565b9392505050565b6060610c368484600085610c3e565b949350505050565b606082471015610c9f5760405162461bcd60e51b815260206004820152602660248201527f416464726573733a20696e73756666696369656e742062616c616e636520666f6044820152651c8818d85b1b60d21b60648201526084016103ef565b600080866001600160a01b03168587604051610cbb9190611257565b60006040518083038185875af1925050503d8060008114610cf8576040519150601f19603f3d011682016040523d82523d6000602084013e610cfd565b606091505b5091509150610d0e87838387610d19565b979650505050505050565b60608315610d88578251600003610d81576001600160a01b0385163b610d815760405162461bcd60e51b815260206004820152601d60248201527f416464726573733a2063616c6c20746f206e6f6e2d636f6e747261637400000060448201526064016103ef565b5081610c36565b610c368383815115610d9d5781518083602001fd5b8060405162461bcd60e51b81526004016103ef91906111c1565b6104b78061127483390190565b600060208284031215610dd657600080fd5b81356001600160e01b031981168114610c2057600080fd5b600060208284031215610e0057600080fd5b5035919050565b6001600160a01b038116811461080957600080fd5b60008060408385031215610e2f57600080fd5b823591506020830135610e4181610e07565b809150509250929050565b60008060408385031215610e5f57600080fd5b8235610e6a81610e07565b946020939093013593505050565b60008083601f840112610e8a57600080fd5b50813567ffffffffffffffff811115610ea257600080fd5b6020830191508360208260051b8501011115610ebd57600080fd5b9250929050565b60008060008060408587031215610eda57600080fd5b843567ffffffffffffffff80821115610ef257600080fd5b610efe88838901610e78565b90965094506020870135915080821115610f1757600080fd5b50610f2487828801610e78565b95989497509550505050565b81835281816020850137506000828201602090810191909152601f909101601f19169091010190565b60208082528181018390526000906040600585901b8401810190840186845b87811015610fe857868403603f190183528135368a9003601e19018112610f9e57600080fd5b8901858101903567ffffffffffffffff811115610fba57600080fd5b803603821315610fc957600080fd5b610fd4868284610f30565b955050509184019190840190600101610f78565b5091979650505050505050565b60006020828403121561100757600080fd5b5051919050565b634e487b7160e01b600052603260045260246000fd5b634e487b7160e01b600052604160045260246000fd5b805167ffffffffffffffff8116811461105257600080fd5b919050565b8051600381900b811461105257600080fd5b60006080828403121561107b57600080fd5b6040516080810181811067ffffffffffffffff821117156110ac57634e487b7160e01b600052604160045260246000fd5b6040528251600781900b81146110c157600080fd5b81526110cf6020840161103a565b60208201526110e060408401611057565b6040820152606083015160608201528091505092915050565b634e487b7160e01b600052601160045260246000fd5b600060018201611121576111216110f9565b5060010190565b60005b8381101561114357818101518382015260200161112b565b50506000910152565b7f416363657373436f6e74726f6c3a206163636f756e7420000000000000000000815260008351611184816017850160208801611128565b7001034b99036b4b9b9b4b733903937b6329607d1b60179184019182015283516111b5816028840160208801611128565b01602801949350505050565b60208152600082518060208401526111e0816040850160208701611128565b601f01601f19169190910160400192915050565b60006020828403121561120657600080fd5b81518015158114610c2057600080fd5b8082028115828204841417610353576103536110f9565b80820180821115610353576103536110f9565b60008161124f5761124f6110f9565b506000190190565b60008251611269818460208701611128565b919091019291505056fe608060405234801561001057600080fd5b5061001a3361001f565b61006f565b600080546001600160a01b038381166001600160a01b0319831681178455604051919092169283917f8be0079c531659141344cd1fd0a4f28419497f9722a3daafe3b4186f6b6457e09190a35050565b6104398061007e6000396000f3fe608060405234801561001057600080fd5b50600436106100935760003560e01c8063715018a611610066578063715018a6146101315780638cd221c9146101395780638da5cb5b146101535780639a6fc8f51461016e578063f2fde38b146101d157600080fd5b806304ea97b0146100985780634c295ca3146100ad57806350d25bcd146100e0578063668a0f0214610105575b600080fd5b6100ab6100a6366004610385565b6101e4565b005b6100cd6100bb36600461039e565b60016020526000908152604090205481565b6040519081526020015b60405180910390f35b60008054600160a01b90046001600160501b03168152600160205260409020546100cd565b600054600160a01b90046001600160501b03165b6040516001600160501b0390911681526020016100d7565b6100ab610249565b60005461011990600160a01b90046001600160501b031681565b6000546040516001600160a01b0390911681526020016100d7565b61019d61017c36600461039e565b6001600160501b038116600090815260016020526040812054919281908190565b604080516001600160501b03968716815260208101959095528401929092526060830152909116608082015260a0016100d7565b6100ab6101df3660046103ce565b61025d565b6101ec6102db565b60005461020a90600160a01b90046001600160501b031660016103f7565b6000805469ffffffffffffffffffff60a01b1916600160a01b6001600160501b0393841681029190911780835504909116815260016020526040902055565b6102516102db565b61025b6000610335565b565b6102656102db565b6001600160a01b0381166102cf5760405162461bcd60e51b815260206004820152602660248201527f4f776e61626c653a206e6577206f776e657220697320746865207a65726f206160448201526564647265737360d01b60648201526084015b60405180910390fd5b6102d881610335565b50565b6000546001600160a01b0316331461025b5760405162461bcd60e51b815260206004820181905260248201527f4f776e61626c653a2063616c6c6572206973206e6f7420746865206f776e657260448201526064016102c6565b600080546001600160a01b038381166001600160a01b0319831681178455604051919092169283917f8be0079c531659141344cd1fd0a4f28419497f9722a3daafe3b4186f6b6457e09190a35050565b60006020828403121561039757600080fd5b5035919050565b6000602082840312156103b057600080fd5b81356001600160501b03811681146103c757600080fd5b9392505050565b6000602082840312156103e057600080fd5b81356001600160a01b03811681146103c757600080fd5b6001600160501b0381811683821601908082111561042557634e487b7160e01b600052601160045260246000fd5b509291505056fea164736f6c6343000811000aa164736f6c6343000811000a",
  "devdoc": {
    "kind": "dev",
    "methods": {
      "getRoleAdmin(bytes32)": {
        "details": "Returns the admin role that controls `role`. See {grantRole} and {revokeRole}. To change a role's admin, use {_setRoleAdmin}."
      },
      "grantRole(bytes32,address)": {
        "details": "Grants `role` to `account`. If `account` had not been already granted `role`, emits a {RoleGranted} event. Requirements: - the caller must have ``role``'s admin role. May emit a {RoleGranted} event."
      },
      "hasRole(bytes32,address)": {
        "details": "Returns `true` if `account` has been granted `role`."
      },
      "renounceRole(bytes32,address)": {
        "details": "Revokes `role` from the calling account. Roles are often managed via {grantRole} and {revokeRole}: this function's purpose is to provide a mechanism for accounts to lose their privileges if they are compromised (such as when a trusted device is misplaced). If the calling account had been revoked `role`, emits a {RoleRevoked} event. Requirements: - the caller must be `account`. May emit a {RoleRevoked} event."
      },
      "revokeRole(bytes32,address)": {
        "details": "Revokes `role` from `account`. If `account` had been granted `role`, emits a {RoleRevoked} event. Requirements: - the caller must have ``role``'s admin role. May emit a {RoleRevoked} event."
      },
      "supportsInterface(bytes4)": {
        "details": "See {IERC165-supportsInterface}."
      }
    },
    "version": 1
  },
  "userdoc": {
    "kind": "user",
    "methods": {},
    "version": 1
  },
  "storageLayout": {
    "storage": [
      {
        "astId": 24,
        "contract": "contracts/PythPriceUpdater.sol:PythPriceUpdater",
        "label": "_roles",
        "offset": 0,
        "slot": "0",
        "type": "t_mapping(t_bytes32,t_struct(RoleData)19_storage)"
      },
      {
        "astId": 2657,
        "contract": "contracts/PythPriceUpdater.sol:PythPriceUpdater",
        "label": "pyth",
        "offset": 0,
        "slot": "1",
        "type": "t_contract(IPyth)2461"
      },
      {
        "astId": 2662,
        "contract": "contracts/PythPriceUpdater.sol:PythPriceUpdater",
        "label": "priceFeeds",
        "offset": 0,
        "slot": "2",
        "type": "t_mapping(t_bytes32,t_contract(PriceFeed)2614)"
      },
      {
        "astId": 2666,
        "contract": "contracts/PythPriceUpdater.sol:PythPriceUpdater",
        "label": "priceTokens",
        "offset": 0,
        "slot": "3",
        "type": "t_mapping(t_bytes32,t_address)"
      }
    ],
    "types": {
      "t_address": {
        "encoding": "inplace",
        "label": "address",
        "numberOfBytes": "20"
      },
      "t_bool": {
        "encoding": "inplace",
        "label": "bool",
        "numberOfBytes": "1"
      },
      "t_bytes32": {
        "encoding": "inplace",
        "label": "bytes32",
        "numberOfBytes": "32"
      },
      "t_contract(IPyth)2461": {
        "encoding": "inplace",
        "label": "contract IPyth",
        "numberOfBytes": "20"
      },
      "t_contract(PriceFeed)2614": {
        "encoding": "inplace",
        "label": "contract PriceFeed",
        "numberOfBytes": "20"
      },
      "t_mapping(t_address,t_bool)": {
        "encoding": "mapping",
        "key": "t_address",
        "label": "mapping(address => bool)",
        "numberOfBytes": "32",
        "value": "t_bool"
      },
      "t_mapping(t_bytes32,t_address)": {
        "encoding": "mapping",
        "key": "t_bytes32",
        "label": "mapping(bytes32 => address)",
        "numberOfBytes": "32",
        "value": "t_address"
      },
      "t_mapping(t_bytes32,t_contract(PriceFeed)2614)": {
        "encoding": "mapping",
        "key": "t_bytes32",
        "label": "mapping(bytes32 => contract PriceFeed)",
        "numberOfBytes": "32",
        "value": "t_contract(PriceFeed)2614"
      },
      "t_mapping(t_bytes32,t_struct(RoleData)19_storage)": {
        "encoding": "mapping",
        "key": "t_bytes32",
        "label": "mapping(bytes32 => struct AccessControl.RoleData)",
        "numberOfBytes": "32",
        "value": "t_struct(RoleData)19_storage"
      },
      "t_struct(RoleData)19_storage": {
        "encoding": "inplace",
        "label": "struct AccessControl.RoleData",
        "members": [
          {
            "astId": 16,
            "contract": "contracts/PythPriceUpdater.sol:PythPriceUpdater",
            "label": "members",
            "offset": 0,
            "slot": "0",
            "type": "t_mapping(t_address,t_bool)"
          },
          {
            "astId": 18,
            "contract": "contracts/PythPriceUpdater.sol:PythPriceUpdater",
            "label": "adminRole",
            "offset": 0,
            "slot": "1",
            "type": "t_bytes32"
          }
        ],
        "numberOfBytes": "64"
      }
    }
  }
}