{
  "address": "0xf0e910ceC7D4022a749230021f8E3ac486F8Bb31",
  "abi": [
    {
      "inputs": [
        {
          "internalType": "address",
          "name": "pythContract",
          "type": "address"
        }
      ],
      "stateMutability": "nonpayable",
      "type": "constructor"
    },
    {
      "anonymous": false,
      "inputs": [
        {
          "indexed": false,
          "internalType": "address",
          "name": "token",
          "type": "address"
        },
        {
          "indexed": false,
          "internalType": "bytes32",
          "name": "priceId",
          "type": "bytes32"
        },
        {
          "indexed": false,
          "internalType": "address",
          "name": "priceFeed",
          "type": "address"
        }
      ],
      "name": "NewPriceFeed",
      "type": "event"
    },
    {
      "anonymous": false,
      "inputs": [
        {
          "indexed": false,
          "internalType": "address",
          "name": "token",
          "type": "address"
        },
        {
          "indexed": false,
          "internalType": "int256",
          "name": "price",
          "type": "int256"
        },
        {
          "indexed": false,
          "internalType": "address",
          "name": "priceFeed",
          "type": "address"
        }
      ],
      "name": "PriceUpdate",
      "type": "event"
    },
    {
      "anonymous": false,
      "inputs": [
        {
          "indexed": true,
          "internalType": "bytes32",
          "name": "role",
          "type": "bytes32"
        },
        {
          "indexed": true,
          "internalType": "bytes32",
          "name": "previousAdminRole",
          "type": "bytes32"
        },
        {
          "indexed": true,
          "internalType": "bytes32",
          "name": "newAdminRole",
          "type": "bytes32"
        }
      ],
      "name": "RoleAdminChanged",
      "type": "event"
    },
    {
      "anonymous": false,
      "inputs": [
        {
          "indexed": true,
          "internalType": "bytes32",
          "name": "role",
          "type": "bytes32"
        },
        {
          "indexed": true,
          "internalType": "address",
          "name": "account",
          "type": "address"
        },
        {
          "indexed": true,
          "internalType": "address",
          "name": "sender",
          "type": "address"
        }
      ],
      "name": "RoleGranted",
      "type": "event"
    },
    {
      "anonymous": false,
      "inputs": [
        {
          "indexed": true,
          "internalType": "bytes32",
          "name": "role",
          "type": "bytes32"
        },
        {
          "indexed": true,
          "internalType": "address",
          "name": "account",
          "type": "address"
        },
        {
          "indexed": true,
          "internalType": "address",
          "name": "sender",
          "type": "address"
        }
      ],
      "name": "RoleRevoked",
      "type": "event"
    },
    {
      "inputs": [],
      "name": "DEFAULT_ADMIN_ROLE",
      "outputs": [
        {
          "internalType": "bytes32",
          "name": "",
          "type": "bytes32"
        }
      ],
      "stateMutability": "view",
      "type": "function"
    },
    {
      "inputs": [],
      "name": "UPDATER_ROLE",
      "outputs": [
        {
          "internalType": "bytes32",
          "name": "",
          "type": "bytes32"
        }
      ],
      "stateMutability": "view",
      "type": "function"
    },
    {
      "inputs": [
        {
          "internalType": "address",
          "name": "token",
          "type": "address"
        },
        {
          "internalType": "bytes32",
          "name": "priceId",
          "type": "bytes32"
        }
      ],
      "name": "deployPriceFeed",
      "outputs": [],
      "stateMutability": "nonpayable",
      "type": "function"
    },
    {
      "inputs": [
        {
          "internalType": "bytes32",
          "name": "role",
          "type": "bytes32"
        }
      ],
      "name": "getRoleAdmin",
      "outputs": [
        {
          "internalType": "bytes32",
          "name": "",
          "type": "bytes32"
        }
      ],
      "stateMutability": "view",
      "type": "function"
    },
    {
      "inputs": [
        {
          "internalType": "bytes32",
          "name": "role",
          "type": "bytes32"
        },
        {
          "internalType": "address",
          "name": "account",
          "type": "address"
        }
      ],
      "name": "grantRole",
      "outputs": [],
      "stateMutability": "nonpayable",
      "type": "function"
    },
    {
      "inputs": [
        {
          "internalType": "bytes32",
          "name": "role",
          "type": "bytes32"
        },
        {
          "internalType": "address",
          "name": "account",
          "type": "address"
        }
      ],
      "name": "hasRole",
      "outputs": [
        {
          "internalType": "bool",
          "name": "",
          "type": "bool"
        }
      ],
      "stateMutability": "view",
      "type": "function"
    },
    {
      "inputs": [
        {
          "internalType": "bytes32",
          "name": "",
          "type": "bytes32"
        }
      ],
      "name": "priceFeeds",
      "outputs": [
        {
          "internalType": "contract PriceFeed",
          "name": "",
          "type": "address"
        }
      ],
      "stateMutability": "view",
      "type": "function"
    },
    {
      "inputs": [
        {
          "internalType": "bytes32",
          "name": "",
          "type": "bytes32"
        }
      ],
      "name": "priceTokens",
      "outputs": [
        {
          "internalType": "address",
          "name": "",
          "type": "address"
        }
      ],
      "stateMutability": "view",
      "type": "function"
    },
    {
      "inputs": [],
      "name": "pyth",
      "outputs": [
        {
          "internalType": "contract IPyth",
          "name": "",
          "type": "address"
        }
      ],
      "stateMutability": "view",
      "type": "function"
    },
    {
      "inputs": [
        {
          "internalType": "bytes32",
          "name": "role",
          "type": "bytes32"
        },
        {
          "internalType": "address",
          "name": "account",
          "type": "address"
        }
      ],
      "name": "renounceRole",
      "outputs": [],
      "stateMutability": "nonpayable",
      "type": "function"
    },
    {
      "inputs": [
        {
          "internalType": "bytes32",
          "name": "role",
          "type": "bytes32"
        },
        {
          "internalType": "address",
          "name": "account",
          "type": "address"
        }
      ],
      "name": "revokeRole",
      "outputs": [],
      "stateMutability": "nonpayable",
      "type": "function"
    },
    {
      "inputs": [
        {
          "internalType": "bytes4",
          "name": "interfaceId",
          "type": "bytes4"
        }
      ],
      "name": "supportsInterface",
      "outputs": [
        {
          "internalType": "bool",
          "name": "",
          "type": "bool"
        }
      ],
      "stateMutability": "view",
      "type": "function"
    },
    {
      "inputs": [
        {
          "internalType": "bytes[]",
          "name": "priceUpdateData",
          "type": "bytes[]"
        },
        {
          "internalType": "bytes32[]",
          "name": "priceIds",
          "type": "bytes32[]"
        }
      ],
      "name": "update",
      "outputs": [],
      "stateMutability": "payable",
      "type": "function"
    }
  ],
  "transactionHash": "0x343a93f5845cbf72d406bbeb92ce5c09eda167a800300024a0e109c941ed4a99",
  "args": [
    "0xA2aa501b19aff244D90cc15a4Cf739D2725B5729"
  ],
  "numDeployments": 2,
  "solcInputHash": "5f34f51e6cd690d39c9d3c537f3c099f",
  "bytecode": "0x608060405234801561001057600080fd5b5060405161154c38038061154c83398101604081905261002f91610131565b600180546001600160a01b0319166001600160a01b038316179055610055600033610085565b61007f7fe7d07e22cc47e0674aa5610dfc0c7c09a0a3b7491679c731a125fba46498854e33610085565b50610161565b61008f8282610093565b5050565b6000828152602081815260408083206001600160a01b038516845290915290205460ff1661008f576000828152602081815260408083206001600160a01b03851684529091529020805460ff191660011790556100ed3390565b6001600160a01b0316816001600160a01b0316837f2f8788117e7eff1d82e926ec794901d17c78024a50270940304540a733656f0d60405160405180910390a45050565b60006020828403121561014357600080fd5b81516001600160a01b038116811461015a57600080fd5b9392505050565b6113dc806101706000396000f3fe6080604052600436106100c25760003560e01c806391d148541161007f578063c6c3f71e11610059578063c6c3f71e14610218578063d547741f14610266578063ea4cf19514610286578063f98d06f0146102bc57600080fd5b806391d14854146101c3578063a217fddf146101e3578063b5205b50146101f857600080fd5b806301ffc9a7146100c7578063248a9ca3146100fc5780632f2ff15d1461013a57806336568abe1461015c57806347e633801461017c57806365e5c288146101b0575b600080fd5b3480156100d357600080fd5b506100e76100e2366004610aab565b6102dc565b60405190151581526020015b60405180910390f35b34801561010857600080fd5b5061012c610117366004610ad5565b60009081526020819052604090206001015490565b6040519081526020016100f3565b34801561014657600080fd5b5061015a610155366004610b0a565b610313565b005b34801561016857600080fd5b5061015a610177366004610b0a565b61033d565b34801561018857600080fd5b5061012c7fe7d07e22cc47e0674aa5610dfc0c7c09a0a3b7491679c731a125fba46498854e81565b61015a6101be366004610b82565b6103c0565b3480156101cf57600080fd5b506100e76101de366004610b0a565b610663565b3480156101ef57600080fd5b5061012c600081565b34801561020457600080fd5b5061015a610213366004610bee565b61068c565b34801561022457600080fd5b5061024e610233366004610ad5565b6002602052600090815260409020546001600160a01b031681565b6040516001600160a01b0390911681526020016100f3565b34801561027257600080fd5b5061015a610281366004610b0a565b610775565b34801561029257600080fd5b5061024e6102a1366004610ad5565b6003602052600090815260409020546001600160a01b031681565b3480156102c857600080fd5b5060015461024e906001600160a01b031681565b60006001600160e01b03198216637965db0b60e01b148061030d57506301ffc9a760e01b6001600160e01b03198316145b92915050565b60008281526020819052604090206001015461032e8161079a565b61033883836107a7565b505050565b6001600160a01b03811633146103b25760405162461bcd60e51b815260206004820152602f60248201527f416363657373436f6e74726f6c3a2063616e206f6e6c792072656e6f756e636560448201526e103937b632b9903337b91039b2b63360891b60648201526084015b60405180910390fd5b6103bc828261082b565b5050565b7fe7d07e22cc47e0674aa5610dfc0c7c09a0a3b7491679c731a125fba46498854e6103ea8161079a565b60015460405163d47eed4560e01b81526000916001600160a01b03169063d47eed459061041d9089908990600401610c41565b602060405180830381865afa15801561043a573d6000803e3d6000fd5b505050506040513d601f19601f8201168201806040525081019061045e9190610cdd565b600154604051631df3cbc560e31b81529192506001600160a01b03169063ef9e5e28908390610493908a908a90600401610c41565b6000604051808303818588803b1580156104ac57600080fd5b505af11580156104c0573d6000803e3d6000fd5b505050505060005b8381101561065a5760008585838181106104e4576104e4610cf6565b6001546040516331d98b3f60e01b815260209290920293909301356004820181905293506000926001600160a01b031691506331d98b3f90602401608060405180830381865afa15801561053c573d6000803e3d6000fd5b505050506040513d601f19601f820116820180604052508101906105609190610d4c565b600083815260026020526040908190205482519151624ea97b60e41b81529293506001600160a01b0316916304ea97b0916105a69160040160079190910b815260200190565b600060405180830381600087803b1580156105c057600080fd5b505af11580156105d4573d6000803e3d6000fd5b505050600083815260036020908152604080832054855160028452938290205482516001600160a01b03928316815260079590950b93850193909352909116908201527f90277e0a27146696910b30954693420979b16d05c5b0318245e248e3f9c404de915060600160405180910390a15050808061065290610df2565b9150506104c8565b50505050505050565b6000918252602082815260408084206001600160a01b0393909316845291905290205460ff1690565b60006106978161079a565b6000828152600360205260409020546001600160a01b0316610338576000828152600360205260409081902080546001600160a01b0319166001600160a01b038616179055516106e690610a9e565b604051809103906000f080158015610702573d6000803e3d6000fd5b5060008381526002602090815260409182902080546001600160a01b0319166001600160a01b0394851690811790915582519387168452908301859052908201527f7fd495bf0819ac229e8e00d665e44daf77b3e916c0790d4873909bcd1cb40f629060600160405180910390a1505050565b6000828152602081905260409020600101546107908161079a565b610338838361082b565b6107a48133610890565b50565b6107b18282610663565b6103bc576000828152602081815260408083206001600160a01b03851684529091529020805460ff191660011790556107e73390565b6001600160a01b0316816001600160a01b0316837f2f8788117e7eff1d82e926ec794901d17c78024a50270940304540a733656f0d60405160405180910390a45050565b6108358282610663565b156103bc576000828152602081815260408083206001600160a01b0385168085529252808320805460ff1916905551339285917ff6391f5c32d9c69d2a47ea670b442974b53935d1edc7fd64eb21e047a839171b9190a45050565b61089a8282610663565b6103bc576108a7816108e9565b6108b28360206108fb565b6040516020016108c3929190610e2f565b60408051601f198184030181529082905262461bcd60e51b82526103a991600401610ea4565b606061030d6001600160a01b03831660145b6060600061090a836002610ed7565b610915906002610eee565b67ffffffffffffffff81111561092d5761092d610d0c565b6040519080825280601f01601f191660200182016040528015610957576020820181803683370190505b509050600360fc1b8160008151811061097257610972610cf6565b60200101906001600160f81b031916908160001a905350600f60fb1b816001815181106109a1576109a1610cf6565b60200101906001600160f81b031916908160001a90535060006109c5846002610ed7565b6109d0906001610eee565b90505b6001811115610a48576f181899199a1a9b1b9c1cb0b131b232b360811b85600f1660108110610a0457610a04610cf6565b1a60f81b828281518110610a1a57610a1a610cf6565b60200101906001600160f81b031916908160001a90535060049490941c93610a4181610f01565b90506109d3565b508315610a975760405162461bcd60e51b815260206004820181905260248201527f537472696e67733a20686578206c656e67746820696e73756666696369656e7460448201526064016103a9565b9392505050565b6104b780610f1983390190565b600060208284031215610abd57600080fd5b81356001600160e01b031981168114610a9757600080fd5b600060208284031215610ae757600080fd5b5035919050565b80356001600160a01b0381168114610b0557600080fd5b919050565b60008060408385031215610b1d57600080fd5b82359150610b2d60208401610aee565b90509250929050565b60008083601f840112610b4857600080fd5b50813567ffffffffffffffff811115610b6057600080fd5b6020830191508360208260051b8501011115610b7b57600080fd5b9250929050565b60008060008060408587031215610b9857600080fd5b843567ffffffffffffffff80821115610bb057600080fd5b610bbc88838901610b36565b90965094506020870135915080821115610bd557600080fd5b50610be287828801610b36565b95989497509550505050565b60008060408385031215610c0157600080fd5b610c0a83610aee565b946020939093013593505050565b81835281816020850137506000828201602090810191909152601f909101601f19169091010190565b60208082528181018390526000906040600585901b8401810190840186845b87811015610cd057868403603f190183528135368a9003601e19018112610c8657600080fd5b8901858101903567ffffffffffffffff811115610ca257600080fd5b803603821315610cb157600080fd5b610cbc868284610c18565b955050509184019190840190600101610c60565b5091979650505050505050565b600060208284031215610cef57600080fd5b5051919050565b634e487b7160e01b600052603260045260246000fd5b634e487b7160e01b600052604160045260246000fd5b805167ffffffffffffffff81168114610b0557600080fd5b8051600381900b8114610b0557600080fd5b600060808284031215610d5e57600080fd5b6040516080810181811067ffffffffffffffff82111715610d8f57634e487b7160e01b600052604160045260246000fd5b6040528251600781900b8114610da457600080fd5b8152610db260208401610d22565b6020820152610dc360408401610d3a565b6040820152606083015160608201528091505092915050565b634e487b7160e01b600052601160045260246000fd5b600060018201610e0457610e04610ddc565b5060010190565b60005b83811015610e26578181015183820152602001610e0e565b50506000910152565b7f416363657373436f6e74726f6c3a206163636f756e7420000000000000000000815260008351610e67816017850160208801610e0b565b7001034b99036b4b9b9b4b733903937b6329607d1b6017918401918201528351610e98816028840160208801610e0b565b01602801949350505050565b6020815260008251806020840152610ec3816040850160208701610e0b565b601f01601f19169190910160400192915050565b808202811582820484141761030d5761030d610ddc565b8082018082111561030d5761030d610ddc565b600081610f1057610f10610ddc565b50600019019056fe608060405234801561001057600080fd5b5061001a3361001f565b61006f565b600080546001600160a01b038381166001600160a01b0319831681178455604051919092169283917f8be0079c531659141344cd1fd0a4f28419497f9722a3daafe3b4186f6b6457e09190a35050565b6104398061007e6000396000f3fe608060405234801561001057600080fd5b50600436106100935760003560e01c8063715018a611610066578063715018a6146101315780638cd221c9146101395780638da5cb5b146101535780639a6fc8f51461016e578063f2fde38b146101d157600080fd5b806304ea97b0146100985780634c295ca3146100ad57806350d25bcd146100e0578063668a0f0214610105575b600080fd5b6100ab6100a6366004610385565b6101e4565b005b6100cd6100bb36600461039e565b60016020526000908152604090205481565b6040519081526020015b60405180910390f35b60008054600160a01b90046001600160501b03168152600160205260409020546100cd565b600054600160a01b90046001600160501b03165b6040516001600160501b0390911681526020016100d7565b6100ab610249565b60005461011990600160a01b90046001600160501b031681565b6000546040516001600160a01b0390911681526020016100d7565b61019d61017c36600461039e565b6001600160501b038116600090815260016020526040812054919281908190565b604080516001600160501b03968716815260208101959095528401929092526060830152909116608082015260a0016100d7565b6100ab6101df3660046103ce565b61025d565b6101ec6102db565b60005461020a90600160a01b90046001600160501b031660016103f7565b6000805469ffffffffffffffffffff60a01b1916600160a01b6001600160501b0393841681029190911780835504909116815260016020526040902055565b6102516102db565b61025b6000610335565b565b6102656102db565b6001600160a01b0381166102cf5760405162461bcd60e51b815260206004820152602660248201527f4f776e61626c653a206e6577206f776e657220697320746865207a65726f206160448201526564647265737360d01b60648201526084015b60405180910390fd5b6102d881610335565b50565b6000546001600160a01b0316331461025b5760405162461bcd60e51b815260206004820181905260248201527f4f776e61626c653a2063616c6c6572206973206e6f7420746865206f776e657260448201526064016102c6565b600080546001600160a01b038381166001600160a01b0319831681178455604051919092169283917f8be0079c531659141344cd1fd0a4f28419497f9722a3daafe3b4186f6b6457e09190a35050565b60006020828403121561039757600080fd5b5035919050565b6000602082840312156103b057600080fd5b81356001600160501b03811681146103c757600080fd5b9392505050565b6000602082840312156103e057600080fd5b81356001600160a01b03811681146103c757600080fd5b6001600160501b0381811683821601908082111561042557634e487b7160e01b600052601160045260246000fd5b509291505056fea164736f6c6343000811000aa164736f6c6343000811000a",
  "devdoc": {
    "kind": "dev",
    "methods": {
      "getRoleAdmin(bytes32)": {
        "details": "Returns the admin role that controls `role`. See {grantRole} and {revokeRole}. To change a role's admin, use {_setRoleAdmin}."
      },
      "grantRole(bytes32,address)": {
        "details": "Grants `role` to `account`. If `account` had not been already granted `role`, emits a {RoleGranted} event. Requirements: - the caller must have ``role``'s admin role. May emit a {RoleGranted} event."
      },
      "hasRole(bytes32,address)": {
        "details": "Returns `true` if `account` has been granted `role`."
      },
      "renounceRole(bytes32,address)": {
        "details": "Revokes `role` from the calling account. Roles are often managed via {grantRole} and {revokeRole}: this function's purpose is to provide a mechanism for accounts to lose their privileges if they are compromised (such as when a trusted device is misplaced). If the calling account had been revoked `role`, emits a {RoleRevoked} event. Requirements: - the caller must be `account`. May emit a {RoleRevoked} event."
      },
      "revokeRole(bytes32,address)": {
        "details": "Revokes `role` from `account`. If `account` had been granted `role`, emits a {RoleRevoked} event. Requirements: - the caller must have ``role``'s admin role. May emit a {RoleRevoked} event."
      },
      "supportsInterface(bytes4)": {
        "details": "See {IERC165-supportsInterface}."
      }
    },
    "version": 1
  },
  "userdoc": {
    "kind": "user",
    "methods": {},
    "version": 1
  },
  "storageLayout": {
    "storage": [
      {
        "astId": 24,
        "contract": "contracts/PythPriceUpdater.sol:PythPriceUpdater",
        "label": "_roles",
        "offset": 0,
        "slot": "0",
        "type": "t_mapping(t_bytes32,t_struct(RoleData)19_storage)"
      },
      {
        "astId": 1925,
        "contract": "contracts/PythPriceUpdater.sol:PythPriceUpdater",
        "label": "pyth",
        "offset": 0,
        "slot": "1",
        "type": "t_contract(IPyth)1736"
      },
      {
        "astId": 1930,
        "contract": "contracts/PythPriceUpdater.sol:PythPriceUpdater",
        "label": "priceFeeds",
        "offset": 0,
        "slot": "2",
        "type": "t_mapping(t_bytes32,t_contract(PriceFeed)1889)"
      },
      {
        "astId": 1934,
        "contract": "contracts/PythPriceUpdater.sol:PythPriceUpdater",
        "label": "priceTokens",
        "offset": 0,
        "slot": "3",
        "type": "t_mapping(t_bytes32,t_address)"
      }
    ],
    "types": {
      "t_address": {
        "encoding": "inplace",
        "label": "address",
        "numberOfBytes": "20"
      },
      "t_bool": {
        "encoding": "inplace",
        "label": "bool",
        "numberOfBytes": "1"
      },
      "t_bytes32": {
        "encoding": "inplace",
        "label": "bytes32",
        "numberOfBytes": "32"
      },
      "t_contract(IPyth)1736": {
        "encoding": "inplace",
        "label": "contract IPyth",
        "numberOfBytes": "20"
      },
      "t_contract(PriceFeed)1889": {
        "encoding": "inplace",
        "label": "contract PriceFeed",
        "numberOfBytes": "20"
      },
      "t_mapping(t_address,t_bool)": {
        "encoding": "mapping",
        "key": "t_address",
        "label": "mapping(address => bool)",
        "numberOfBytes": "32",
        "value": "t_bool"
      },
      "t_mapping(t_bytes32,t_address)": {
        "encoding": "mapping",
        "key": "t_bytes32",
        "label": "mapping(bytes32 => address)",
        "numberOfBytes": "32",
        "value": "t_address"
      },
      "t_mapping(t_bytes32,t_contract(PriceFeed)1889)": {
        "encoding": "mapping",
        "key": "t_bytes32",
        "label": "mapping(bytes32 => contract PriceFeed)",
        "numberOfBytes": "32",
        "value": "t_contract(PriceFeed)1889"
      },
      "t_mapping(t_bytes32,t_struct(RoleData)19_storage)": {
        "encoding": "mapping",
        "key": "t_bytes32",
        "label": "mapping(bytes32 => struct AccessControl.RoleData)",
        "numberOfBytes": "32",
        "value": "t_struct(RoleData)19_storage"
      },
      "t_struct(RoleData)19_storage": {
        "encoding": "inplace",
        "label": "struct AccessControl.RoleData",
        "members": [
          {
            "astId": 16,
            "contract": "contracts/PythPriceUpdater.sol:PythPriceUpdater",
            "label": "members",
            "offset": 0,
            "slot": "0",
            "type": "t_mapping(t_address,t_bool)"
          },
          {
            "astId": 18,
            "contract": "contracts/PythPriceUpdater.sol:PythPriceUpdater",
            "label": "adminRole",
            "offset": 0,
            "slot": "1",
            "type": "t_bytes32"
          }
        ],
        "numberOfBytes": "64"
      }
    }
  }
}