{
  "address": "0x3BD9329A794da2a84267B1934241Daf5Ce8e70F2",
  "abi": [
    {
      "inputs": [],
      "stateMutability": "nonpayable",
      "type": "constructor"
    },
    {
      "anonymous": false,
      "inputs": [
        {
          "indexed": false,
          "internalType": "address",
          "name": "token",
          "type": "address"
        },
        {
          "indexed": false,
          "internalType": "bytes32",
          "name": "priceId",
          "type": "bytes32"
        },
        {
          "indexed": false,
          "internalType": "address",
          "name": "priceFeed",
          "type": "address"
        }
      ],
      "name": "NewPriceFeed",
      "type": "event"
    },
    {
      "anonymous": false,
      "inputs": [
        {
          "indexed": false,
          "internalType": "address",
          "name": "token",
          "type": "address"
        },
        {
          "indexed": false,
          "internalType": "int256",
          "name": "price",
          "type": "int256"
        },
        {
          "indexed": false,
          "internalType": "address",
          "name": "priceFeed",
          "type": "address"
        }
      ],
      "name": "PriceUpdate",
      "type": "event"
    },
    {
      "anonymous": false,
      "inputs": [
        {
          "indexed": true,
          "internalType": "bytes32",
          "name": "role",
          "type": "bytes32"
        },
        {
          "indexed": true,
          "internalType": "bytes32",
          "name": "previousAdminRole",
          "type": "bytes32"
        },
        {
          "indexed": true,
          "internalType": "bytes32",
          "name": "newAdminRole",
          "type": "bytes32"
        }
      ],
      "name": "RoleAdminChanged",
      "type": "event"
    },
    {
      "anonymous": false,
      "inputs": [
        {
          "indexed": true,
          "internalType": "bytes32",
          "name": "role",
          "type": "bytes32"
        },
        {
          "indexed": true,
          "internalType": "address",
          "name": "account",
          "type": "address"
        },
        {
          "indexed": true,
          "internalType": "address",
          "name": "sender",
          "type": "address"
        }
      ],
      "name": "RoleGranted",
      "type": "event"
    },
    {
      "anonymous": false,
      "inputs": [
        {
          "indexed": true,
          "internalType": "bytes32",
          "name": "role",
          "type": "bytes32"
        },
        {
          "indexed": true,
          "internalType": "address",
          "name": "account",
          "type": "address"
        },
        {
          "indexed": true,
          "internalType": "address",
          "name": "sender",
          "type": "address"
        }
      ],
      "name": "RoleRevoked",
      "type": "event"
    },
    {
      "inputs": [],
      "name": "DEFAULT_ADMIN_ROLE",
      "outputs": [
        {
          "internalType": "bytes32",
          "name": "",
          "type": "bytes32"
        }
      ],
      "stateMutability": "view",
      "type": "function"
    },
    {
      "inputs": [],
      "name": "UPDATER_ROLE",
      "outputs": [
        {
          "internalType": "bytes32",
          "name": "",
          "type": "bytes32"
        }
      ],
      "stateMutability": "view",
      "type": "function"
    },
    {
      "inputs": [
        {
          "internalType": "address",
          "name": "token",
          "type": "address"
        },
        {
          "internalType": "bytes32",
          "name": "priceId",
          "type": "bytes32"
        }
      ],
      "name": "deployPriceFeed",
      "outputs": [],
      "stateMutability": "nonpayable",
      "type": "function"
    },
    {
      "inputs": [
        {
          "internalType": "bytes32",
          "name": "role",
          "type": "bytes32"
        }
      ],
      "name": "getRoleAdmin",
      "outputs": [
        {
          "internalType": "bytes32",
          "name": "",
          "type": "bytes32"
        }
      ],
      "stateMutability": "view",
      "type": "function"
    },
    {
      "inputs": [
        {
          "internalType": "bytes32",
          "name": "role",
          "type": "bytes32"
        },
        {
          "internalType": "address",
          "name": "account",
          "type": "address"
        }
      ],
      "name": "grantRole",
      "outputs": [],
      "stateMutability": "nonpayable",
      "type": "function"
    },
    {
      "inputs": [
        {
          "internalType": "bytes32",
          "name": "role",
          "type": "bytes32"
        },
        {
          "internalType": "address",
          "name": "account",
          "type": "address"
        }
      ],
      "name": "hasRole",
      "outputs": [
        {
          "internalType": "bool",
          "name": "",
          "type": "bool"
        }
      ],
      "stateMutability": "view",
      "type": "function"
    },
    {
      "inputs": [
        {
          "internalType": "bytes32",
          "name": "",
          "type": "bytes32"
        }
      ],
      "name": "priceFeeds",
      "outputs": [
        {
          "internalType": "contract PriceFeed",
          "name": "",
          "type": "address"
        }
      ],
      "stateMutability": "view",
      "type": "function"
    },
    {
      "inputs": [
        {
          "internalType": "bytes32",
          "name": "",
          "type": "bytes32"
        }
      ],
      "name": "priceTokens",
      "outputs": [
        {
          "internalType": "address",
          "name": "",
          "type": "address"
        }
      ],
      "stateMutability": "view",
      "type": "function"
    },
    {
      "inputs": [
        {
          "internalType": "bytes32",
          "name": "role",
          "type": "bytes32"
        },
        {
          "internalType": "address",
          "name": "account",
          "type": "address"
        }
      ],
      "name": "renounceRole",
      "outputs": [],
      "stateMutability": "nonpayable",
      "type": "function"
    },
    {
      "inputs": [
        {
          "internalType": "bytes32",
          "name": "role",
          "type": "bytes32"
        },
        {
          "internalType": "address",
          "name": "account",
          "type": "address"
        }
      ],
      "name": "revokeRole",
      "outputs": [],
      "stateMutability": "nonpayable",
      "type": "function"
    },
    {
      "inputs": [
        {
          "internalType": "bytes4",
          "name": "interfaceId",
          "type": "bytes4"
        }
      ],
      "name": "supportsInterface",
      "outputs": [
        {
          "internalType": "bool",
          "name": "",
          "type": "bool"
        }
      ],
      "stateMutability": "view",
      "type": "function"
    },
    {
      "inputs": [
        {
          "internalType": "int256[]",
          "name": "prices",
          "type": "int256[]"
        },
        {
          "internalType": "bytes32[]",
          "name": "priceIds",
          "type": "bytes32[]"
        }
      ],
      "name": "update",
      "outputs": [],
      "stateMutability": "payable",
      "type": "function"
    },
    {
      "stateMutability": "payable",
      "type": "receive"
    }
  ],
  "transactionHash": "0x303935b6ce90740371d0b63012ae9d2a1757b1fdd0d567b4425dff1afc4feaa0",
  "args": [],
  "numDeployments": 1,
  "solcInputHash": "57eb2028380f29f48cd586088bbae4ab",
  "bytecode": "0x608060405234801561001057600080fd5b5061001c60003361004b565b6100467fe7d07e22cc47e0674aa5610dfc0c7c09a0a3b7491679c731a125fba46498854e3361004b565b6100f7565b6100558282610059565b5050565b6000828152602081815260408083206001600160a01b038516845290915290205460ff16610055576000828152602081815260408083206001600160a01b03851684529091529020805460ff191660011790556100b33390565b6001600160a01b0316816001600160a01b0316837f2f8788117e7eff1d82e926ec794901d17c78024a50270940304540a733656f0d60405160405180910390a45050565b611137806101066000396000f3fe6080604052600436106100ab5760003560e01c8063a217fddf11610064578063a217fddf146101c0578063b5205b50146101d5578063ba98ab8d146101f5578063c6c3f71e14610208578063d547741f14610256578063ea4cf1951461027657600080fd5b806301ffc9a7146100b7578063248a9ca3146100ec5780632f2ff15d1461012a57806336568abe1461014c57806347e633801461016c57806391d14854146101a057600080fd5b366100b257005b600080fd5b3480156100c357600080fd5b506100d76100d236600461099e565b6102ac565b60405190151581526020015b60405180910390f35b3480156100f857600080fd5b5061011c6101073660046109c8565b60009081526020819052604090206001015490565b6040519081526020016100e3565b34801561013657600080fd5b5061014a6101453660046109fd565b6102e3565b005b34801561015857600080fd5b5061014a6101673660046109fd565b61030d565b34801561017857600080fd5b5061011c7fe7d07e22cc47e0674aa5610dfc0c7c09a0a3b7491679c731a125fba46498854e81565b3480156101ac57600080fd5b506100d76101bb3660046109fd565b610390565b3480156101cc57600080fd5b5061011c600081565b3480156101e157600080fd5b5061014a6101f0366004610a29565b6103b9565b61014a610203366004610a9f565b6104a2565b34801561021457600080fd5b5061023e6102233660046109c8565b6001602052600090815260409020546001600160a01b031681565b6040516001600160a01b0390911681526020016100e3565b34801561026257600080fd5b5061014a6102713660046109fd565b610668565b34801561028257600080fd5b5061023e6102913660046109c8565b6002602052600090815260409020546001600160a01b031681565b60006001600160e01b03198216637965db0b60e01b14806102dd57506301ffc9a760e01b6001600160e01b03198316145b92915050565b6000828152602081905260409020600101546102fe8161068d565b610308838361069a565b505050565b6001600160a01b03811633146103825760405162461bcd60e51b815260206004820152602f60248201527f416363657373436f6e74726f6c3a2063616e206f6e6c792072656e6f756e636560448201526e103937b632b9903337b91039b2b63360891b60648201526084015b60405180910390fd5b61038c828261071e565b5050565b6000918252602082815260408084206001600160a01b0393909316845291905290205460ff1690565b60006103c48161068d565b6000828152600260205260409020546001600160a01b0316610308576000828152600260205260409081902080546001600160a01b0319166001600160a01b0386161790555161041390610991565b604051809103906000f08015801561042f573d6000803e3d6000fd5b5060008381526001602090815260409182902080546001600160a01b0319166001600160a01b0394851690811790915582519387168452908301859052908201527f7fd495bf0819ac229e8e00d665e44daf77b3e916c0790d4873909bcd1cb40f629060600160405180910390a1505050565b7fe7d07e22cc47e0674aa5610dfc0c7c09a0a3b7491679c731a125fba46498854e6104cc8161068d565b83821461050b5760405162461bcd60e51b815260206004820152600d60248201526c125b9d985b1a59081a5b9c1d5d609a1b6044820152606401610379565b60005b8281101561066057600084848381811061052a5761052a610b0b565b6020908102929092013560008181526001909352604090922054919250506001600160a01b03166304ea97b088888581811061056857610568610b0b565b905060200201356040518263ffffffff1660e01b815260040161058d91815260200190565b600060405180830381600087803b1580156105a757600080fd5b505af11580156105bb573d6000803e3d6000fd5b5050506000828152600260205260409020547f90277e0a27146696910b30954693420979b16d05c5b0318245e248e3f9c404de91506001600160a01b031688888581811061060b5761060b610b0b565b6000868152600160209081526040918290205482516001600160a01b03978816815293820295909501359083015293909216828401525090519081900360600190a1508061065881610b37565b91505061050e565b505050505050565b6000828152602081905260409020600101546106838161068d565b610308838361071e565b6106978133610783565b50565b6106a48282610390565b61038c576000828152602081815260408083206001600160a01b03851684529091529020805460ff191660011790556106da3390565b6001600160a01b0316816001600160a01b0316837f2f8788117e7eff1d82e926ec794901d17c78024a50270940304540a733656f0d60405160405180910390a45050565b6107288282610390565b1561038c576000828152602081815260408083206001600160a01b0385168085529252808320805460ff1916905551339285917ff6391f5c32d9c69d2a47ea670b442974b53935d1edc7fd64eb21e047a839171b9190a45050565b61078d8282610390565b61038c5761079a816107dc565b6107a58360206107ee565b6040516020016107b6929190610b74565b60408051601f198184030181529082905262461bcd60e51b825261037991600401610be9565b60606102dd6001600160a01b03831660145b606060006107fd836002610c1c565b610808906002610c33565b67ffffffffffffffff81111561082057610820610c46565b6040519080825280601f01601f19166020018201604052801561084a576020820181803683370190505b509050600360fc1b8160008151811061086557610865610b0b565b60200101906001600160f81b031916908160001a905350600f60fb1b8160018151811061089457610894610b0b565b60200101906001600160f81b031916908160001a90535060006108b8846002610c1c565b6108c3906001610c33565b90505b600181111561093b576f181899199a1a9b1b9c1cb0b131b232b360811b85600f16601081106108f7576108f7610b0b565b1a60f81b82828151811061090d5761090d610b0b565b60200101906001600160f81b031916908160001a90535060049490941c9361093481610c5c565b90506108c6565b50831561098a5760405162461bcd60e51b815260206004820181905260248201527f537472696e67733a20686578206c656e67746820696e73756666696369656e746044820152606401610379565b9392505050565b6104b780610c7483390190565b6000602082840312156109b057600080fd5b81356001600160e01b03198116811461098a57600080fd5b6000602082840312156109da57600080fd5b5035919050565b80356001600160a01b03811681146109f857600080fd5b919050565b60008060408385031215610a1057600080fd5b82359150610a20602084016109e1565b90509250929050565b60008060408385031215610a3c57600080fd5b610a45836109e1565b946020939093013593505050565b60008083601f840112610a6557600080fd5b50813567ffffffffffffffff811115610a7d57600080fd5b6020830191508360208260051b8501011115610a9857600080fd5b9250929050565b60008060008060408587031215610ab557600080fd5b843567ffffffffffffffff80821115610acd57600080fd5b610ad988838901610a53565b90965094506020870135915080821115610af257600080fd5b50610aff87828801610a53565b95989497509550505050565b634e487b7160e01b600052603260045260246000fd5b634e487b7160e01b600052601160045260246000fd5b600060018201610b4957610b49610b21565b5060010190565b60005b83811015610b6b578181015183820152602001610b53565b50506000910152565b7f416363657373436f6e74726f6c3a206163636f756e7420000000000000000000815260008351610bac816017850160208801610b50565b7001034b99036b4b9b9b4b733903937b6329607d1b6017918401918201528351610bdd816028840160208801610b50565b01602801949350505050565b6020815260008251806020840152610c08816040850160208701610b50565b601f01601f19169190910160400192915050565b80820281158282048414176102dd576102dd610b21565b808201808211156102dd576102dd610b21565b634e487b7160e01b600052604160045260246000fd5b600081610c6b57610c6b610b21565b50600019019056fe608060405234801561001057600080fd5b5061001a3361001f565b61006f565b600080546001600160a01b038381166001600160a01b0319831681178455604051919092169283917f8be0079c531659141344cd1fd0a4f28419497f9722a3daafe3b4186f6b6457e09190a35050565b6104398061007e6000396000f3fe608060405234801561001057600080fd5b50600436106100935760003560e01c8063715018a611610066578063715018a6146101315780638cd221c9146101395780638da5cb5b146101535780639a6fc8f51461016e578063f2fde38b146101d157600080fd5b806304ea97b0146100985780634c295ca3146100ad57806350d25bcd146100e0578063668a0f0214610105575b600080fd5b6100ab6100a6366004610385565b6101e4565b005b6100cd6100bb36600461039e565b60016020526000908152604090205481565b6040519081526020015b60405180910390f35b60008054600160a01b90046001600160501b03168152600160205260409020546100cd565b600054600160a01b90046001600160501b03165b6040516001600160501b0390911681526020016100d7565b6100ab610249565b60005461011990600160a01b90046001600160501b031681565b6000546040516001600160a01b0390911681526020016100d7565b61019d61017c36600461039e565b6001600160501b038116600090815260016020526040812054919281908190565b604080516001600160501b03968716815260208101959095528401929092526060830152909116608082015260a0016100d7565b6100ab6101df3660046103ce565b61025d565b6101ec6102db565b60005461020a90600160a01b90046001600160501b031660016103f7565b6000805469ffffffffffffffffffff60a01b1916600160a01b6001600160501b0393841681029190911780835504909116815260016020526040902055565b6102516102db565b61025b6000610335565b565b6102656102db565b6001600160a01b0381166102cf5760405162461bcd60e51b815260206004820152602660248201527f4f776e61626c653a206e6577206f776e657220697320746865207a65726f206160448201526564647265737360d01b60648201526084015b60405180910390fd5b6102d881610335565b50565b6000546001600160a01b0316331461025b5760405162461bcd60e51b815260206004820181905260248201527f4f776e61626c653a2063616c6c6572206973206e6f7420746865206f776e657260448201526064016102c6565b600080546001600160a01b038381166001600160a01b0319831681178455604051919092169283917f8be0079c531659141344cd1fd0a4f28419497f9722a3daafe3b4186f6b6457e09190a35050565b60006020828403121561039757600080fd5b5035919050565b6000602082840312156103b057600080fd5b81356001600160501b03811681146103c757600080fd5b9392505050565b6000602082840312156103e057600080fd5b81356001600160a01b03811681146103c757600080fd5b6001600160501b0381811683821601908082111561042557634e487b7160e01b600052601160045260246000fd5b509291505056fea164736f6c6343000811000aa164736f6c6343000811000a",
  "devdoc": {
    "kind": "dev",
    "methods": {
      "getRoleAdmin(bytes32)": {
        "details": "Returns the admin role that controls `role`. See {grantRole} and {revokeRole}. To change a role's admin, use {_setRoleAdmin}."
      },
      "grantRole(bytes32,address)": {
        "details": "Grants `role` to `account`. If `account` had not been already granted `role`, emits a {RoleGranted} event. Requirements: - the caller must have ``role``'s admin role. May emit a {RoleGranted} event."
      },
      "hasRole(bytes32,address)": {
        "details": "Returns `true` if `account` has been granted `role`."
      },
      "renounceRole(bytes32,address)": {
        "details": "Revokes `role` from the calling account. Roles are often managed via {grantRole} and {revokeRole}: this function's purpose is to provide a mechanism for accounts to lose their privileges if they are compromised (such as when a trusted device is misplaced). If the calling account had been revoked `role`, emits a {RoleRevoked} event. Requirements: - the caller must be `account`. May emit a {RoleRevoked} event."
      },
      "revokeRole(bytes32,address)": {
        "details": "Revokes `role` from `account`. If `account` had been granted `role`, emits a {RoleRevoked} event. Requirements: - the caller must have ``role``'s admin role. May emit a {RoleRevoked} event."
      },
      "supportsInterface(bytes4)": {
        "details": "See {IERC165-supportsInterface}."
      }
    },
    "version": 1
  },
  "userdoc": {
    "kind": "user",
    "methods": {},
    "version": 1
  },
  "storageLayout": {
    "storage": [
      {
        "astId": 24,
        "contract": "contracts/mocks/UnsafePriceUpdater.sol:UnsafePriceUpdater",
        "label": "_roles",
        "offset": 0,
        "slot": "0",
        "type": "t_mapping(t_bytes32,t_struct(RoleData)19_storage)"
      },
      {
        "astId": 1744,
        "contract": "contracts/mocks/UnsafePriceUpdater.sol:UnsafePriceUpdater",
        "label": "priceFeeds",
        "offset": 0,
        "slot": "1",
        "type": "t_mapping(t_bytes32,t_contract(PriceFeed)1682)"
      },
      {
        "astId": 1748,
        "contract": "contracts/mocks/UnsafePriceUpdater.sol:UnsafePriceUpdater",
        "label": "priceTokens",
        "offset": 0,
        "slot": "2",
        "type": "t_mapping(t_bytes32,t_address)"
      }
    ],
    "types": {
      "t_address": {
        "encoding": "inplace",
        "label": "address",
        "numberOfBytes": "20"
      },
      "t_bool": {
        "encoding": "inplace",
        "label": "bool",
        "numberOfBytes": "1"
      },
      "t_bytes32": {
        "encoding": "inplace",
        "label": "bytes32",
        "numberOfBytes": "32"
      },
      "t_contract(PriceFeed)1682": {
        "encoding": "inplace",
        "label": "contract PriceFeed",
        "numberOfBytes": "20"
      },
      "t_mapping(t_address,t_bool)": {
        "encoding": "mapping",
        "key": "t_address",
        "label": "mapping(address => bool)",
        "numberOfBytes": "32",
        "value": "t_bool"
      },
      "t_mapping(t_bytes32,t_address)": {
        "encoding": "mapping",
        "key": "t_bytes32",
        "label": "mapping(bytes32 => address)",
        "numberOfBytes": "32",
        "value": "t_address"
      },
      "t_mapping(t_bytes32,t_contract(PriceFeed)1682)": {
        "encoding": "mapping",
        "key": "t_bytes32",
        "label": "mapping(bytes32 => contract PriceFeed)",
        "numberOfBytes": "32",
        "value": "t_contract(PriceFeed)1682"
      },
      "t_mapping(t_bytes32,t_struct(RoleData)19_storage)": {
        "encoding": "mapping",
        "key": "t_bytes32",
        "label": "mapping(bytes32 => struct AccessControl.RoleData)",
        "numberOfBytes": "32",
        "value": "t_struct(RoleData)19_storage"
      },
      "t_struct(RoleData)19_storage": {
        "encoding": "inplace",
        "label": "struct AccessControl.RoleData",
        "members": [
          {
            "astId": 16,
            "contract": "contracts/mocks/UnsafePriceUpdater.sol:UnsafePriceUpdater",
            "label": "members",
            "offset": 0,
            "slot": "0",
            "type": "t_mapping(t_address,t_bool)"
          },
          {
            "astId": 18,
            "contract": "contracts/mocks/UnsafePriceUpdater.sol:UnsafePriceUpdater",
            "label": "adminRole",
            "offset": 0,
            "slot": "1",
            "type": "t_bytes32"
          }
        ],
        "numberOfBytes": "64"
      }
    }
  }
}